:0300000002093CB6
:0C093C00787FE4F6D8FD75814F02098336
:100B4500011300011500011100011200011000013F
:100B55001400010F00011700011900011600011E04
:100B650000011B00011D00011A0001200001080001
:100B7500020C0000011F00020A0000010E0001180E
:070B850000011C0001090042
:03000B00020AD610
:100AD600C0E0C0F0C0D075D000C000C004C005C0E2
:030AE60006C00740
:100AE900758C4C758A000508E5086414703DF50895
:100AF900E511C3943B500405118030E515C3943BBF
:100B0900500405158022E513C3941750040513807A
:100B190014E5122401FFE433FE7C007D07120A81EB
:0B0B29008D127513007515007511008A
:100B3400D007D006D005D004D000D0D0D0F0D0E07B
:010B4400327E
:1009C800AB07E511C3943C5007E511C394005011DF
:1009D800E511243CFFE433FE7C007D3C120A818D46
:1009E80011E515C3943C5007E515C394005011E573
:1009F80015243CFFE433FE7C007D3C120A818D15F2
:100A0800E513C394185007E513C394005011E51378
:100A18002418FFE433FE7C007D18120A818D13E54B
:100A280012C394075007E512C394005011E512242D
:100A380007FFE433FE7C007D07120A818D128512C0
:0C0A4800418B42AB11AD15AF130206BD8F
:100C4000D3E50B9488E50A94134009E4F50AF50B03
:100C5000F51F800FE51F600B740F250BF50BE435B6
:100C60000AF50AE50D2414FFE4350CFE7C037DE84B
:080C7000120A818C0C8D0D228B
:10041400E4FEF53EFCF53FED1460581460612402DF
:10042400706EEF14602314603524027063C3741873
:100434009513FEC3743C9515F53EC3743C9511FCAD
:10044400C374079512F53F8047C374189510FEC313
:10045400743C9514F53EC3743C950FFC8032C37410
:10046400649517FEC3743C9519F53EC3743C951608
:10047400FC801D7E01753E017C01753F018011BF2A
:1004840002047E6380027E17753E3B7C3B753F060B
:10049400EF14606E14700302054D2402600302051C
:1004A40093E51F24FE60201460311460412403602E
:1004B40003020593EE2513FFE433FE7C007D18123E
:1004C4000A818D13020593E515253EFFE433FE7C76
:1004D400007D3C120A818D15020593EC2511FFE481
:1004E40033FE7C007D3C120A818D11020593E512D6
:1004F400253FFFE433FE7C007D07120A818D120242
:100504000593E51F24FE601C14602C240260030282
:100514000593EE2510FFE433FE7C007D18120A815A
:100524008D10806BE514253EFFE433FE7C007D3C9A
:10053400120A818D148058EC250FFFE433FE7C00F1
:100544007D3C120A818D0F8046E51F24FE601B143A
:10055400602B24027039AF06E5172FFFE433FE7CCD
:10056400007D64120A818D178025E519253EFFE47C
:1005740033FE7C007D3C120A818D198012AF04E5A4
:10058400162FFFE433FE7C007D3C120A818D16E4B5
:04059400F50AF50B64
:010598002240
:0C000E00E4F51FF50AF50BF50CF50D22CA
:03001B000208AF29
:1008AF00C0E0C0D0758DDC758B00E50E6033051E82
:1008BF00E51E6464702BE516D39400400415168072
:1008CF001DE519D39400400775163B1519800FE5E8
:1008DF0017D39400400875163B75193B1517751EF5
:1008EF0000E51860430520E5206464703BF520E5C2
:1008FF001AC3943B5004051A802EE51DC3943B5038
:10090F0004051D800CE51BC39463500A051B751D60
:10091F0000751A008012751C017509017518007594
:0D092F001B00751A00751D00D0D0D0E032FD
:0207DD008F3E4D
:1007DF00E4F53FF540F50CF50DE509700302089BB4
:1007EF00E53E700D7D397F03120C967D387F0480B6
:1007FF00127D79E4FF120C967D507F01120C967DCD
:10080F00507F02120C96C3E54094EEE53F940250E0
:10081F000DC3E50D9478E50C94005002B2A57F014D
:10082F007E00120C78D3E54094B0E53F9404400667
:10083F007E007F008009E5402401FFE4353FFE8EF6
:10084F003F8F40D3E50D94C8E50C940040067E0021
:10085F007F008009E50D2401FFE4350CFE8E0C8F1F
:10086F000D30B10C30B00930B20630B3030207E8D7
:10087F007F0A7E00120C7830B10C30B00930B2060E
:10088F0030B3030207E8E4F5090207E830B1FD30A1
:0F089F00B0FA30B2F730B3F4D2A5E4F50CF50D92
:0108AE002227
:10001E00E4F539F53A120BA9D2A6D2A7120CB112F9
:10002E000CCAE5396003020131C3E50D94F4E50C09
:10003E0094015004AF1F8002E4FF1209C8120C4055
:03004E0020B1617D
:10005100E4F53BF53C7F0AFE801A20B11CC3E53C68
:1000610094E8E53B94035008053CE53C7002053BF0
:100071007F017E00120C7880E1D3E53C94BCE53B26
:100081009402400C753901C2A7D2A612000E80213C
:10009100D3E53C9400E53B94004016E51F2401FFA5
:1000A100E433FE7C007D05120A818D1FE4F50AF51B
:0100B1000B43
:1000B20020B0187F0A7E00120C7820B00EE51F6077
:1000C2000A7D02E4FF12041430B0FD20B2187F0A48
:1000D2007E00120C7820B20EE51F600A7D01E4FF5B
:1000E20012041430B2FD20B31E7F0A7E00120C7877
:1000F20020B314E4FDFF120414E51FB40306758C4B
:10010200EEE4F58A30B3FDE53A70030203EEE5133F
:10011200651060030203EEE515651460030203EE49
:10012200E511650F60030203EE7509010203EEE5B6
:100132003964016003020232C3E50D94F4E50C94C4
:10014200015008754107E4F5428006754107851F95
:1001520042AB0FAD14AF101206BDE53A70047D71CB
:0F01620080027D737F07120C96120C4020B1575C
:10017100E4F53BF53C7F0AFE801A20B11CC3E53C47
:1001810094D0E53B94075008053CE53C7002053BE3
:100191007F017E00120C7880E1D3E53C94BCE53B05
:1001A1009402400C753902C2A6D2A712000E801724
:1001B100D3E53C9400E53B9400400CE51F04540357
:0701C100F51FE4F50AF50B40
:1001C80020B0187F0A7E00120C7820B00EE51F6060
:1001D8000A7D027F0112041430B0FD20B2187F0A94
:1001E8007E00120C7820B20EE51F600A7D017F01A7
:1001F80012041430B2FD30B3030203EE7F0A7E000E
:10020800120C7830B3030203EEE51F700EE53A7066
:10021800047F0180027F008F3A8007E4FD7F01128E
:10022800041430B3030203EE80F8E5396402600376
:1002380002035BC3E50D94F4E50C94015008754185
:1002480007E4F5428006754107851F42AB16AD19D4
:0B025800AF171206BD120C4020B1577A
:10026300E4F53BF53C7F0AFE801A20B11CC3E53C54
:1002730094E8E53B94035008053CE53C7002053BDC
:100283007F017E00120C7880E1D3E53C9420E53BAE
:100293009403400C753903C2A6C2A712000E80173F
:1002A300D3E53C9400E53B9400400CE51F04540364
:0702B300F51FE4F50AF50B4D
:1002BA0020B0147F0A7E00120C7820B00A7D027FDB
:1002CA000212041430B0FD20B2147F0A7E00120C10
:1002DA007820B20A7D017F0212041430B2FD30B3D5
:0402EA00030203EE1A
:1002EE00E4F53BF53C7F0AFE801A20B31CC3E53CC7
:1002FE0094DCE53B94055008053CE53C7002053B5B
:10030E007F017E00120C7880E1D3E53C9420E53B22
:10031E009403400EE4F50EF517F519F516F51E02C9
:10032E0003EED3E53C9400E53B940050030203EE4C
:10033E00E51F700FE50E70047F0180027F008F0EA7
:0A034E000203EEE4FD7F0212041426
:0C0358000203EEE539640360030203EECB
:10036400F53B85203B853B41AB1AAD1DAF1B120508
:040374009920B157C4
:10037800E4F53CF53D7F0AFE801A20B11CC3E53D3B
:1003880094E8E53C94035008053DE53D7002053CC2
:100398007F017E00120C7880E1D3E53D9420E53C96
:1003A8009403400CE4F539D2A6D2A712000E8017A8
:1003B800D3E53D9400E53C9400400CE51870047FBB
:0703C8000180027F008F1885
:0303CF0020B31C3C
:1003D200E4F53CF53D7F0AFE120C7820B30BE4F500
:0C03E20018F51BF51DF51AF52030B3FDD1
:1003EE00E50E6013E516700FE519700BE517700733
:1003FE00F50EF51E750901E5097003020030AF1CFC
:06040E001207DD020030C0
:0B0CF500EF1FAC0670011E4C70F622D1
:090C7800D3EF9400EE9400401447
:100C810000754E02754FC7D54FFDD54EF7EF1F705A
:020C9100E61E5D
:030C930080E322D9
:100B8C0011283F065B4F666D7D077F6F777C395E62
:0C0B9C0079710007217F065B4F666D7DBC
:100BA900E4F546F547E4FFFE743E2FF8A6470FBF6C
:100BB90000010EEF64084E70EFE4F548F5497B003B
:100BC9007A00793E120BFE7F017E00120C780549EE
:100BD900E54970020548C39446E54864809480401D
:100BE900DD0547E54770020546D39409E54664806B
:040BF900948040B1F3
:010BFD0022D5
:100CE300EF1392A2EFC313FF1392A3EFC313139255
:010CF300A45C
:010CF40022DD
:04000300E4F580227E
:060BFE008B4A8A4B894C72
:100C0400E4F54DC37407954DFF120CE3AB4AAA4BB0
:100C1400A94C854D82758300120A542428F8E6F500
:100C2400807F017E00120C781200037F017E001287
:0B0C34000C78054DE54DC3940840C846
:010C3F002292
:1006BD008F3E8D3F8B40E542640160487F07120CF1
:1006CD00E3E53E75F00A842428F8E6F5807F017E87
:1006DD0000120C781200037F017E00120C787F0649
:1006ED00120CE3E53E75F00A84742825F0F8E64413
:1006FD0080F5807F017E00120C781200037F017E51
:10070D0000120C78E542640260487F05120CE3E5A7
:10071D003F75F00A842428F8E6F5807F017E0012EB
:10072D000C781200037F017E00120C787F04120CEE
:10073D00E3E53F75F00A84742825F0F8E64480F56A
:10074D00807F017E00120C781200037F017E001263
:10075D000C78E542640360467F03120CE3E54075B7
:10076D00F00A842428F8E6F5807F017E00120C78CB
:10077D001200037F017E00120C787F02120CE3E55C
:10078D004075F00A84742825F0F8E6F5807F017E27
:10079D0000120C781200037F017E00120C78E542E6
:1007AD006404602BE541C394004024E54194075057
:1007BD001EE4FF120CE374212541F8E6F5807F015C
:1007CD007E00120C781200037F017E00120C78223D
:100599008F3E8D3F8B407F07120CE3E53E75F00AD5
:1005A900842428F8E6F5807F017E00120C78120079
:1005B900037F017E00120C787F06120CE3E53E757D
:1005C900F00A84742825F0F8E64480F5807F017EDE
:1005D90000120C781200037F017E00120C787F054F
:1005E900120CE3E53F75F00A842428F8E6F5807FCC
:1005F900017E00120C781200037F017E00120C7834
:100609007F04120CE3E53F75F00A84742825F0F89D
:10061900E64480F5807F017E00120C781200037F8A
:10062900017E00120C787F03120CE3E54075F00A95
:10063900842428F8E6F5807F017E00120C781200E8
:10064900037F017E00120C787F02120CE3E54075EE
:10065900F00A84742825F0F8E64480F5807F017E4D
:1006690000120C781200037F017E00120C787F01C2
:10067900120CE3E54175F00A842428F8E6F5807F39
:10068900017E00120C781200037F017E00120C78A3
:10069900E4FF120CE3E54175F00A84742825F0F8AB
:1006A900E6F5807F017E00120C781200037F017E3F
:0406B90000020C78B7
:100C9600C374079FFF120CE38D807F017E00120C48
:0B0CA600781200037F017E00020C7832
:100CB1005389F75389FB4389015389FD758CEEE410
:090CC100F58AD2AFD2A9D28C222F
:03000700C28C2286
:100CCA0053897F5389BF4389105389DF758DDCE4CB
:090CDA00F58BD2AFD2ABD28E2211
:030D0000C28E227E
:1009480002001EE493A3F8E493A34003F68001F2A7
:1009580008DFF48029E493A3F85407240CC8C333B0
:10096800C4540F4420C8834004F456800146F6DF7F
:10097800E4800B0102040810204080900B45E47EBF
:10098800019360BCA3FF543F30E509541FFEE49374
:10099800A360010ECF54C025E060A840B8E493A33B
:1009A800FAE493A3F8E493A3C8C582C8CAC583CA66
:1009B800F0A3C8C582C8CAC583CADFE9DEE780BE1E
:010BA800004C
:100A5400BB010CE58229F582E5833AF583E0225057
:100A640006E92582F8E622BBFE06E92582F8E222A1
:0D0A7400E58229F582E5833AF583E49322BB
:100A8100BC000BBE0029EF8DF084FFADF022E4CC59
:100A9100F875F008EF2FFFEE33FEEC33FCEE9DEC22
:100AA100984005FCEE9DFE0FD5F0E9E4CEFD22ED68
:100AB100F8F5F0EE8420D21CFEADF075F008EF2FB2
:100AC100FFED33FD4007985006D5F0F222C398FDA3
:050AD1000FD5F0EA2240
:00000001FF
